:1000000019C018951895189518951895189518955C
:100010001895189518951895189518951895189578
:100020001895189518951895189518951895189568
:10003000189518958FEF8DBFC8EDE0EA4E2E82E03F
:100040008EBFD2E0F2E05F2EA89584B7082E877F9E
:1000500084BF88E199278093600090936000EEEF61
:10006000F1E0A0E0B1E088278D933197E9F76624AD
:100070007091500070687093500070917A007F7793
:1000800070937A0087E08093B10080E08093B000A5
:1000900080E28093B6007091700071607093700080
:1000A0008FD2219A2098289A22982A9A23982B9ABC
:1000B00024982C9A25982D9A3898409A3998419AE4
:1000C0003A98429A3B98439A789400910001013003
:1000D00009F00CC070EE7093B20089D218E89BD280
:1000E00014E299D210E097D28ED213C1023009F0F7
:1000F00010C180E08AB97FEF7BB90000A0E2B1E0D7
:1001000089B18C930091200147E00423A6E1B1E07E
:100110000C9370E07BB98FEF8AB90091160140E132
:10012000049F0092B20063D219E875D293D2A5E27F
:10013000B1E01C938FD2A6E2B1E01C938BD2A7E270
:10014000B1E01C9387D2A9E2B1E01C9383D2AAE26A
:10015000B1E01C937DD2ABE2B1E01C9354D2CED17E
:100160004091280100912701041709F038C09091AF
:10017000250180912601A3E2B1E08D939C93E6EBEB
:10018000FAE042D4E3E2F1E0D190E080FF240027DE
:100190001BD3A0D3EDE0F0E0A7E1B1E079D2EAEB28
:1001A000FAE032D4E7E1F1E0A7D23BD3EDE0F0E0B2
:1001B000A7E1B1E06DD2EEEBFAE026D4E7E1F1E0A1
:1001C0009BD2C5D3EDE0F0E0A7E1B1E061D2E7E179
:1001D000F1E068D4EDE0F0E0A7E1B1E059D2809120
:1001E00029018093250180912A0180932601809125
:1001F0002B018093270182D14091280100912B018E
:10020000041709F02CC09091290180912A01A3E2E2
:10021000B1E08D939C93E2ECFAE0F6D3E3E2F1E0F7
:10022000D190E080FF240027CFD254D3EDE0F0E05E
:10023000ABE1B1E02DD2EAEBFAE0E6D3EBE1F1E09D
:100240005BD2EFD2EDE0F0E0ABE1B1E021D2EBE147
:10025000F1E028D4EDE0F0E0ABE1B1E019D2E7E164
:10026000F1E04AD2E6ECFAE0CFD32DD208F451C047
:10027000EBE1F1E041D2EAECFAE0C6D324D208F493
:1002800048C081E08093250180911601809326016A
:10029000E7E1F1E041D2A3E2B1E0DD92EC92E7E1E7
:1002A000F1E02AD2EEECFAE0AFD30DD208F00FC0A5
:1002B000A6E2B1E08C9188608C93E7E1F1E0ADD3E8
:1002C000EDE0F0E029D2A3E2B1E0DD92EC9228D19A
:1002D0008091220180932701809121018093280140
:1002E0008091200180932901EBE1F1E015D2A3E296
:1002F000B1E0DD92EC9214D18091220180932A0129
:100300008091210180932B018091200180932C0109
:1003100015D0A0E0B1E08C918F5F8C93009100012B
:10032000073108F403C080E08093000173B7707F49
:10033000776073BF8895C9CEF894FFCFA9E0B1E08C
:10034000E2EDFAE0ABD18AE08093200168948091DD
:100350002001A9E0B1E096D18BD10C9016F00922D2
:1003600001C0082A0C92A0E2B1E08C918B5F8C93C3
:10037000009120010C3310F009F001C0E7CF80E0BC
:100380008093140180E08093150180E08093130135
:10039000A3E1B1E08C918F5F8C93A3E1B1E0AD90CC
:1003A000BB24A4E2B1E0AA0DBB1D8C918093120185
:1003B0005FD000911301083008F4EACFA3E1B1E067
:1003C0008C918F5F8C93809114018093120150D097
:1003D000A5E1B1E08C918B5F8C93009115014FE00A
:1003E0000423A2E1B1E00C93A3E1B1E08C918F5F13
:1003F0008C933ED080E08093200180912001A9E081
:10040000B1E040D135D10C900822689409F4E89409
:100410000EF011C0299AEF93FF93E8E5F0E0C7D002
:10042000FF91EF912998EF93FF93EFEBF0E0BFD0AE
:10043000FF91EF9110C0299AEF93FF93E2EDF0E066
:10044000B6D0FF91EF912998EF93FF93E8E4F0E0A5
:10045000AED0FF91EF91A0E2B1E08C918F5F8C93D1
:10046000009120010C3310F009F001C0C6CF0895AF
:100470000091130145E0049FA1E1B1E00C92A1E1DC
:10048000B1E08C918A5F8C9380E080932001809111
:100490002001A2E1B1E0F6D0EBD00C9008226894E4
:1004A00009F4E89480911101A9E0B1E0EBD0E0D02B
:1004B0000C9016F0092201C0082A0C92A1E1B1E0CB
:1004C0008C918F5F8C93A0E2B1E08C918F5F8C93C5
:1004D00000912001043008F4DACF0091140140911A
:1004E00012010427A4E1B1E00C93009115014091A1
:1004F0001201040FA5E1B1E00C930895E5E2F1E0EB
:1005000002E08FEF61E39191892718E0880F08F4EA
:1005100086271A95D9F70A95B1F731968083089501
:1005200080E080931F01A3E2B1E00D911C9104369D
:1005300050E0150708F410C0A3E2B1E00D911C9142
:1005400004561040A3E2B1E00D931C93AFE1B1E07B
:100550008C918F5F8C93E7CF80911F018093200156
:1005600080E080931F01A3E2B1E00D911C910A305D
:1005700050E0150708F410C0A3E2B1E00D911C9102
:100580000A501040A3E2B1E00D931C93AFE1B1E03B
:100590008C918F5F8C93E7CF80911F018093210115
:1005A000A3E2B1E08C91A2E2B1E08C93089531977F
:1005B000F1F70895689462F80895E89462F8089550
:1005C0003C983D98449A459A089568944093BC009D
:1005D0008F939F9388279927019629F04091BC001B
:1005E00047FFFACFE8949F918F9162F8089544EA0B
:1005F000ECDF4091B900487F483019F0403109F0F4
:10060000689462F8089544E94093BC004091BC00AE
:1006100044FDFCCF08951093BB0044E8D6DF8F93D0
:100620009F9388279927019671F04091B900487FE0
:10063000483FC9F3E894483139F0483229F0403452
:1006400019F0403509F068949F918F9162F80895F0
:1006500044E801C044ECB9DF1091BB004091B900FF
:10066000487F483FD9F30895C895319600200895F2
:1006700091E0882321F08894991F8A95E9F7892FC2
:1006800090950895883018F011968850FBCF089502
:1006900094E081918D939A95E1F7089588E0059013
:1006A0000D928A95E1F718970895B7FE089590E89E
:1006B000B91611F4D0FE08959FEFD91AE90AF90A84
:1006C00009F4039508950F928F939F93D216E30632
:1006D000F4060FB680E890E8802795270FBE8907BB
:1006E00039F00FB6892B87FD02C081E008260FBEC6
:1006F0009F918F910F900895D190E190F190019189
:10070000089521913191419151910895502F2D2DAE
:100710003E2D4F2D612F0895EFDF992711278F2D43
:10072000880F80E8F82A802F881F08F41FEF41F017
:100730008F57082F07FD04C0003240F08FEF01C033
:100740008827982FD82EE82EF82E09C08FE1801B1D
:10075000082FF694E794D79497950A95D1F711232B
:1007600051F09095D094E094F09481E0980F882710
:10077000D81EE81EF81E0F2DFE2CED2CD92E089544
:10078000D094E094F09491E0D90E9927E91EF91ED7
:1007900010950895652F90E8440F551F5927990F1C
:1007A00047956078102F90E8FF0C001F0927990FDC
:1007B000F794107800380895FF0C90E89027110FF7
:1007C0009795F794092F08951127BD2CDE2CEF2C57
:1007D000F02E0EE1FF2039F4FE2CED2CDB2CBB2497
:1007E0000850C2F752C032F00A95BB0CDD1CEE1C5B
:1007F000FF1CF9CF5ADFE0CF2DEC3CEC4CEC5DE375
:1008000066270FC079DF82DFDD24EE2490E8F92E21
:100810000FE307C076DF05C02227332740E251E40B
:100820006627552351F1002381F1B4DF71F11627BA
:10083000005850580894050B18F407FD03C025C054
:1008400007FD23C0469537952795F694E794D794EE
:1008500025D0FF202AF0DD0CEE1CFF1C015073F0A8
:100860009D2D969548F0DD203AF4EE202AF491E093
:10087000D90E9927E91EF91E9FCF07C09FE7092FC0
:10088000F92A9FEFD92EE92E0895DD24EE24FF24C6
:100890000027112708950FE79FEFF2CF9F92992429
:1008A000AA24BB2488E1D216E306F40628F0D21A63
:1008B000E30AF40A089401C08894991CAA1CBB1C82
:1008C000DD0CEE1CFF1C8A9571F7D92CEA2CFB2C51
:1008D0009F9008955FDFD1F05038C1F0162700587F
:1008E000952F90580894091F12F418F40EC008F0C0
:1008F0000DC00DD0FF202AF0BB0CDD1CEE1CFF1C30
:1009000002C0039513F0D1DE57CFB8CFBECF9F9270
:10091000FF92EF928D2DFF24EE24DD24BB2493E083
:10092000849F1001829FB00CD11CE21CF31C839F9A
:10093000D00CE11C2224F21C9A9531F0BD2CDE2C47
:10094000EF2CFF248F91ECCF9F900895DADE22DF09
:10095000503829F090E869270CC00AF045D02CCF18
:100960005FE322273327442701C0CBDE13DF503853
:10097000B1F3003899F3902F951B8BF312F434D018
:10098000FACF983118F0222733274427983028F0DF
:10099000232F342F44279850F9CF992329F04695D7
:1009A000379527959A95D9F7912F962742F014D02D
:1009B000B0F6F794E794D7940F5F8BF65FCF10D023
:1009C00051F008F4DDDEFF2052F2DD0CEE1CFF1CBE
:1009D0000150CBF753CF59CFD20EE31EF41E08952A
:1009E000D21AE30AF40A0895DF92EF92FF920F936E
:1009F0001F93D22EE32EF42E052F162F6F915F91A9
:100A00004F913F912F9108952FDE202D2DDE302D17
:100A10002BDE402D29DE502D08956EDE0F770895D0
:100A20006BDE80E003C068DE802F8078882321F0B1
:100A3000DF92EF92FF920F938F93ACDE802F83951E
:100A400012F423DF1BC080958A95885E0AF415C0D6
:100A500088501AF40CD0D92210C0DD2488501AF422
:100A600006D0E9220AC0EE2402D0F92206C09FEF88
:100A70008770990F8A95EAF708959EDE8F918823F3
:100A8000D9F35F914F913F912F910F931CDE0F91FE
:100A900099F390F302D0506869CF5FE340E83327C1
:100AA0002227089529DE0F930F775ADFBDDF8F913C
:100AB0008078082B089500C0DA4400FF7F470000CB
:100AC000E14300007A44000096C30000803F00002C
:0A0AD000000000000000000000001C
:00000001FF
